{
  "_format": "hh-sol-artifact-1",
  "contractName": "MyEpicNFT",
  "sourceName": "contracts/MyEpicNFT.sol",
  "abi": [
    {
      "inputs": [],
      "stateMutability": "nonpayable",
      "type": "constructor"
    },
    {
      "anonymous": false,
      "inputs": [
        {
          "indexed": true,
          "internalType": "address",
          "name": "owner",
          "type": "address"
        },
        {
          "indexed": true,
          "internalType": "address",
          "name": "approved",
          "type": "address"
        },
        {
          "indexed": true,
          "internalType": "uint256",
          "name": "tokenId",
          "type": "uint256"
        }
      ],
      "name": "Approval",
      "type": "event"
    },
    {
      "anonymous": false,
      "inputs": [
        {
          "indexed": true,
          "internalType": "address",
          "name": "owner",
          "type": "address"
        },
        {
          "indexed": true,
          "internalType": "address",
          "name": "operator",
          "type": "address"
        },
        {
          "indexed": false,
          "internalType": "bool",
          "name": "approved",
          "type": "bool"
        }
      ],
      "name": "ApprovalForAll",
      "type": "event"
    },
    {
      "anonymous": false,
      "inputs": [
        {
          "indexed": false,
          "internalType": "address",
          "name": "sender",
          "type": "address"
        },
        {
          "indexed": false,
          "internalType": "uint256",
          "name": "tokenId",
          "type": "uint256"
        }
      ],
      "name": "NewEpicNFTMinted",
      "type": "event"
    },
    {
      "anonymous": false,
      "inputs": [
        {
          "indexed": true,
          "internalType": "address",
          "name": "from",
          "type": "address"
        },
        {
          "indexed": true,
          "internalType": "address",
          "name": "to",
          "type": "address"
        },
        {
          "indexed": true,
          "internalType": "uint256",
          "name": "tokenId",
          "type": "uint256"
        }
      ],
      "name": "Transfer",
      "type": "event"
    },
    {
      "inputs": [
        {
          "internalType": "address",
          "name": "to",
          "type": "address"
        },
        {
          "internalType": "uint256",
          "name": "tokenId",
          "type": "uint256"
        }
      ],
      "name": "approve",
      "outputs": [],
      "stateMutability": "nonpayable",
      "type": "function"
    },
    {
      "inputs": [
        {
          "internalType": "address",
          "name": "owner",
          "type": "address"
        }
      ],
      "name": "balanceOf",
      "outputs": [
        {
          "internalType": "uint256",
          "name": "",
          "type": "uint256"
        }
      ],
      "stateMutability": "view",
      "type": "function"
    },
    {
      "inputs": [
        {
          "internalType": "uint256",
          "name": "tokenId",
          "type": "uint256"
        }
      ],
      "name": "getApproved",
      "outputs": [
        {
          "internalType": "address",
          "name": "",
          "type": "address"
        }
      ],
      "stateMutability": "view",
      "type": "function"
    },
    {
      "inputs": [
        {
          "internalType": "address",
          "name": "owner",
          "type": "address"
        },
        {
          "internalType": "address",
          "name": "operator",
          "type": "address"
        }
      ],
      "name": "isApprovedForAll",
      "outputs": [
        {
          "internalType": "bool",
          "name": "",
          "type": "bool"
        }
      ],
      "stateMutability": "view",
      "type": "function"
    },
    {
      "inputs": [],
      "name": "makeAnEpicNFT",
      "outputs": [],
      "stateMutability": "nonpayable",
      "type": "function"
    },
    {
      "inputs": [],
      "name": "name",
      "outputs": [
        {
          "internalType": "string",
          "name": "",
          "type": "string"
        }
      ],
      "stateMutability": "view",
      "type": "function"
    },
    {
      "inputs": [
        {
          "internalType": "uint256",
          "name": "tokenId",
          "type": "uint256"
        }
      ],
      "name": "ownerOf",
      "outputs": [
        {
          "internalType": "address",
          "name": "",
          "type": "address"
        }
      ],
      "stateMutability": "view",
      "type": "function"
    },
    {
      "inputs": [
        {
          "internalType": "address",
          "name": "from",
          "type": "address"
        },
        {
          "internalType": "address",
          "name": "to",
          "type": "address"
        },
        {
          "internalType": "uint256",
          "name": "tokenId",
          "type": "uint256"
        }
      ],
      "name": "safeTransferFrom",
      "outputs": [],
      "stateMutability": "nonpayable",
      "type": "function"
    },
    {
      "inputs": [
        {
          "internalType": "address",
          "name": "from",
          "type": "address"
        },
        {
          "internalType": "address",
          "name": "to",
          "type": "address"
        },
        {
          "internalType": "uint256",
          "name": "tokenId",
          "type": "uint256"
        },
        {
          "internalType": "bytes",
          "name": "data",
          "type": "bytes"
        }
      ],
      "name": "safeTransferFrom",
      "outputs": [],
      "stateMutability": "nonpayable",
      "type": "function"
    },
    {
      "inputs": [
        {
          "internalType": "address",
          "name": "operator",
          "type": "address"
        },
        {
          "internalType": "bool",
          "name": "approved",
          "type": "bool"
        }
      ],
      "name": "setApprovalForAll",
      "outputs": [],
      "stateMutability": "nonpayable",
      "type": "function"
    },
    {
      "inputs": [
        {
          "internalType": "bytes4",
          "name": "interfaceId",
          "type": "bytes4"
        }
      ],
      "name": "supportsInterface",
      "outputs": [
        {
          "internalType": "bool",
          "name": "",
          "type": "bool"
        }
      ],
      "stateMutability": "view",
      "type": "function"
    },
    {
      "inputs": [],
      "name": "symbol",
      "outputs": [
        {
          "internalType": "string",
          "name": "",
          "type": "string"
        }
      ],
      "stateMutability": "view",
      "type": "function"
    },
    {
      "inputs": [
        {
          "internalType": "uint256",
          "name": "tokenId",
          "type": "uint256"
        }
      ],
      "name": "tokenURI",
      "outputs": [
        {
          "internalType": "string",
          "name": "",
          "type": "string"
        }
      ],
      "stateMutability": "view",
      "type": "function"
    },
    {
      "inputs": [
        {
          "internalType": "address",
          "name": "from",
          "type": "address"
        },
        {
          "internalType": "address",
          "name": "to",
          "type": "address"
        },
        {
          "internalType": "uint256",
          "name": "tokenId",
          "type": "uint256"
        }
      ],
      "name": "transferFrom",
      "outputs": [],
      "stateMutability": "nonpayable",
      "type": "function"
    }
  ],
  "bytecode": "0x60806040523480156200001157600080fd5b506040518060400160405280601481526020017f4d657461766572736553656375726974794e46540000000000000000000000008152506040518060400160405280600581526020017f4d534e465400000000000000000000000000000000000000000000000000000081525081600090816200008f91906200041f565b508060019081620000a191906200041f565b505050620000d36040518060600160405280602e815260200162003502602e9139620000d960201b62000af01760201c565b620005b9565b6200017981604051602401620000f0919062000595565b6040516020818303038152906040527f41304fac000000000000000000000000000000000000000000000000000000007bffffffffffffffffffffffffffffffffffffffffffffffffffffffff19166020820180517bffffffffffffffffffffffffffffffffffffffffffffffffffffffff83818316178352505050506200017c60201b60201c565b50565b60008151905060006a636f6e736f6c652e6c6f679050602083016000808483855afa5050505050565b600081519050919050565b7f4e487b7100000000000000000000000000000000000000000000000000000000600052604160045260246000fd5b7f4e487b7100000000000000000000000000000000000000000000000000000000600052602260045260246000fd5b600060028204905060018216806200022757607f821691505b6020821081036200023d576200023c620001df565b5b50919050565b60008190508160005260206000209050919050565b60006020601f8301049050919050565b600082821b905092915050565b600060088302620002a77fffffffffffffffffffffffffffffffffffffffffffffffffffffffffffffffff8262000268565b620002b3868362000268565b95508019841693508086168417925050509392505050565b6000819050919050565b6000819050919050565b600062000300620002fa620002f484620002cb565b620002d5565b620002cb565b9050919050565b6000819050919050565b6200031c83620002df565b620003346200032b8262000307565b84845462000275565b825550505050565b600090565b6200034b6200033c565b6200035881848462000311565b505050565b5b8181101562000380576200037460008262000341565b6001810190506200035e565b5050565b601f821115620003cf57620003998162000243565b620003a48462000258565b81016020851015620003b4578190505b620003cc620003c38562000258565b8301826200035d565b50505b505050565b600082821c905092915050565b6000620003f460001984600802620003d4565b1980831691505092915050565b60006200040f8383620003e1565b9150826002028217905092915050565b6200042a82620001a5565b67ffffffffffffffff811115620004465762000445620001b0565b5b6200045282546200020e565b6200045f82828562000384565b600060209050601f83116001811462000497576000841562000482578287015190505b6200048e858262000401565b865550620004fe565b601f198416620004a78662000243565b60005b82811015620004d157848901518255600182019150602085019450602081019050620004aa565b86831015620004f15784890151620004ed601f891682620003e1565b8355505b6001600288020188555050505b505050505050565b600082825260208201905092915050565b60005b83811015620005375780820151818401526020810190506200051a565b60008484015250505050565b6000601f19601f8301169050919050565b60006200056182620001a5565b6200056d818562000506565b93506200057f81856020860162000517565b6200058a8162000543565b840191505092915050565b60006020820190508181036000830152620005b1818462000554565b905092915050565b612f3980620005c96000396000f3fe608060405234801561001057600080fd5b50600436106100ea5760003560e01c806370a082311161008c578063b88d4fde11610066578063b88d4fde1461025b578063c87b56dd14610277578063de9d132f146102a7578063e985e9c5146102b1576100ea565b806370a08231146101f157806395d89b4114610221578063a22cb4651461023f576100ea565b8063095ea7b3116100c8578063095ea7b31461016d57806323b872dd1461018957806342842e0e146101a55780636352211e146101c1576100ea565b806301ffc9a7146100ef57806306fdde031461011f578063081812fc1461013d575b600080fd5b610109600480360381019061010491906119d8565b6102e1565b6040516101169190611a20565b60405180910390f35b6101276103c3565b6040516101349190611acb565b60405180910390f35b61015760048036038101906101529190611b23565b610455565b6040516101649190611b91565b60405180910390f35b61018760048036038101906101829190611bd8565b61049b565b005b6101a3600480360381019061019e9190611c18565b6105b2565b005b6101bf60048036038101906101ba9190611c18565b610612565b005b6101db60048036038101906101d69190611b23565b610632565b6040516101e89190611b91565b60405180910390f35b61020b60048036038101906102069190611c6b565b6106e3565b6040516102189190611ca7565b60405180910390f35b61022961079a565b6040516102369190611acb565b60405180910390f35b61025960048036038101906102549190611cee565b61082c565b005b61027560048036038101906102709190611e63565b610842565b005b610291600480360381019061028c9190611b23565b6108a4565b60405161029e9190611acb565b60405180910390f35b6102af6109b6565b005b6102cb60048036038101906102c69190611ee6565b610a5c565b6040516102d89190611a20565b60405180910390f35b60007f80ac58cd000000000000000000000000000000000000000000000000000000007bffffffffffffffffffffffffffffffffffffffffffffffffffffffff1916827bffffffffffffffffffffffffffffffffffffffffffffffffffffffff191614806103ac57507f5b5e139f000000000000000000000000000000000000000000000000000000007bffffffffffffffffffffffffffffffffffffffffffffffffffffffff1916827bffffffffffffffffffffffffffffffffffffffffffffffffffffffff1916145b806103bc57506103bb82610b89565b5b9050919050565b6060600080546103d290611f55565b80601f01602080910402602001604051908101604052809291908181526020018280546103fe90611f55565b801561044b5780601f106104205761010080835404028352916020019161044b565b820191906000526020600020905b81548152906001019060200180831161042e57829003601f168201915b5050505050905090565b600061046082610bf3565b6004600083815260200190815260200160002060009054906101000a900473ffffffffffffffffffffffffffffffffffffffff169050919050565b60006104a682610632565b90508073ffffffffffffffffffffffffffffffffffffffff168373ffffffffffffffffffffffffffffffffffffffff1603610516576040517f08c379a000000000000000000000000000000000000000000000000000000000815260040161050d90611ff8565b60405180910390fd5b8073ffffffffffffffffffffffffffffffffffffffff16610535610c3e565b73ffffffffffffffffffffffffffffffffffffffff16148061056457506105638161055e610c3e565b610a5c565b5b6105a3576040517f08c379a000000000000000000000000000000000000000000000000000000000815260040161059a9061208a565b60405180910390fd5b6105ad8383610c46565b505050565b6105c36105bd610c3e565b82610cff565b610602576040517f08c379a00000000000000000000000000000000000000000000000000000000081526004016105f99061211c565b60405180910390fd5b61060d838383610d94565b505050565b61062d83838360405180602001604052806000815250610842565b505050565b6000806002600084815260200190815260200160002060009054906101000a900473ffffffffffffffffffffffffffffffffffffffff169050600073ffffffffffffffffffffffffffffffffffffffff168173ffffffffffffffffffffffffffffffffffffffff16036106da576040517f08c379a00000000000000000000000000000000000000000000000000000000081526004016106d190612188565b60405180910390fd5b80915050919050565b60008073ffffffffffffffffffffffffffffffffffffffff168273ffffffffffffffffffffffffffffffffffffffff1603610753576040517f08c379a000000000000000000000000000000000000000000000000000000000815260040161074a9061221a565b60405180910390fd5b600360008373ffffffffffffffffffffffffffffffffffffffff1673ffffffffffffffffffffffffffffffffffffffff168152602001908152602001600020549050919050565b6060600180546107a990611f55565b80601f01602080910402602001604051908101604052809291908181526020018280546107d590611f55565b80156108225780601f106107f757610100808354040283529160200191610822565b820191906000526020600020905b81548152906001019060200180831161080557829003601f168201915b5050505050905090565b61083e610837610c3e565b8383610ffa565b5050565b61085361084d610c3e565b83610cff565b610892576040517f08c379a00000000000000000000000000000000000000000000000000000000081526004016108899061211c565b60405180910390fd5b61089e84848484611166565b50505050565b60606108af82610bf3565b60006006600084815260200190815260200160002080546108cf90611f55565b80601f01602080910402602001604051908101604052809291908181526020018280546108fb90611f55565b80156109485780601f1061091d57610100808354040283529160200191610948565b820191906000526020600020905b81548152906001019060200180831161092b57829003601f168201915b5050505050905060006109596111c2565b9050600081510361096e5781925050506109b1565b6000825111156109a357808260405160200161098b929190612276565b604051602081830303815290604052925050506109b1565b6109ac846111d9565b925050505b919050565b60006109c26007611241565b90506109ce338261124f565b6109f3816040518061038001604052806103518152602001612bb3610351913961126d565b610a16604051806060016040528060258152602001612b8e6025913982336112da565b610a206007611379565b7febb98688741ffa4c7589bf325de30cf7becb63de567842e1ccdb6cb949fdc82c3382604051610a5192919061229a565b60405180910390a150565b6000600560008473ffffffffffffffffffffffffffffffffffffffff1673ffffffffffffffffffffffffffffffffffffffff16815260200190815260200160002060008373ffffffffffffffffffffffffffffffffffffffff1673ffffffffffffffffffffffffffffffffffffffff16815260200190815260200160002060009054906101000a900460ff16905092915050565b610b8681604051602401610b049190611acb565b6040516020818303038152906040527f41304fac000000000000000000000000000000000000000000000000000000007bffffffffffffffffffffffffffffffffffffffffffffffffffffffff19166020820180517bffffffffffffffffffffffffffffffffffffffffffffffffffffffff838183161783525050505061138f565b50565b60007f01ffc9a7000000000000000000000000000000000000000000000000000000007bffffffffffffffffffffffffffffffffffffffffffffffffffffffff1916827bffffffffffffffffffffffffffffffffffffffffffffffffffffffff1916149050919050565b610bfc816113b8565b610c3b576040517f08c379a0000000000000000000000000000000000000000000000000000000008152600401610c3290612188565b60405180910390fd5b50565b600033905090565b816004600083815260200190815260200160002060006101000a81548173ffffffffffffffffffffffffffffffffffffffff021916908373ffffffffffffffffffffffffffffffffffffffff160217905550808273ffffffffffffffffffffffffffffffffffffffff16610cb983610632565b73ffffffffffffffffffffffffffffffffffffffff167f8c5be1e5ebec7d5bd14f71427d1e84f3dd0314c0f7b2291e5b200ac8c7c3b92560405160405180910390a45050565b600080610d0b83610632565b90508073ffffffffffffffffffffffffffffffffffffffff168473ffffffffffffffffffffffffffffffffffffffff161480610d4d5750610d4c8185610a5c565b5b80610d8b57508373ffffffffffffffffffffffffffffffffffffffff16610d7384610455565b73ffffffffffffffffffffffffffffffffffffffff16145b91505092915050565b8273ffffffffffffffffffffffffffffffffffffffff16610db482610632565b73ffffffffffffffffffffffffffffffffffffffff1614610e0a576040517f08c379a0000000000000000000000000000000000000000000000000000000008152600401610e0190612335565b60405180910390fd5b600073ffffffffffffffffffffffffffffffffffffffff168273ffffffffffffffffffffffffffffffffffffffff1603610e79576040517f08c379a0000000000000000000000000000000000000000000000000000000008152600401610e70906123c7565b60405180910390fd5b610e84838383611424565b610e8f600082610c46565b6001600360008573ffffffffffffffffffffffffffffffffffffffff1673ffffffffffffffffffffffffffffffffffffffff1681526020019081526020016000206000828254610edf9190612416565b925050819055506001600360008473ffffffffffffffffffffffffffffffffffffffff1673ffffffffffffffffffffffffffffffffffffffff1681526020019081526020016000206000828254610f36919061244a565b92505081905550816002600083815260200190815260200160002060006101000a81548173ffffffffffffffffffffffffffffffffffffffff021916908373ffffffffffffffffffffffffffffffffffffffff160217905550808273ffffffffffffffffffffffffffffffffffffffff168473ffffffffffffffffffffffffffffffffffffffff167fddf252ad1be2c89b69c2b068fc378daa952ba7f163c4a11628f55a4df523b3ef60405160405180910390a4610ff5838383611429565b505050565b8173ffffffffffffffffffffffffffffffffffffffff168373ffffffffffffffffffffffffffffffffffffffff1603611068576040517f08c379a000000000000000000000000000000000000000000000000000000000815260040161105f906124ca565b60405180910390fd5b80600560008573ffffffffffffffffffffffffffffffffffffffff1673ffffffffffffffffffffffffffffffffffffffff16815260200190815260200160002060008473ffffffffffffffffffffffffffffffffffffffff1673ffffffffffffffffffffffffffffffffffffffff16815260200190815260200160002060006101000a81548160ff0219169083151502179055508173ffffffffffffffffffffffffffffffffffffffff168373ffffffffffffffffffffffffffffffffffffffff167f17307eab39ab6107e8899845ad3d59bd9653f200f220920489ca2b5937696c31836040516111599190611a20565b60405180910390a3505050565b611171848484610d94565b61117d8484848461142e565b6111bc576040517f08c379a00000000000000000000000000000000000000000000000000000000081526004016111b39061255c565b60405180910390fd5b50505050565b606060405180602001604052806000815250905090565b60606111e482610bf3565b60006111ee6111c2565b9050600081511161120e5760405180602001604052806000815250611239565b80611218846115b5565b604051602001611229929190612276565b6040516020818303038152906040525b915050919050565b600081600001549050919050565b611269828260405180602001604052806000815250611715565b5050565b611276826113b8565b6112b5576040517f08c379a00000000000000000000000000000000000000000000000000000000081526004016112ac906125ee565b60405180910390fd5b806006600084815260200190815260200160002090816112d591906127ba565b505050565b6113748383836040516024016112f29392919061288c565b6040516020818303038152906040527fe3849f79000000000000000000000000000000000000000000000000000000007bffffffffffffffffffffffffffffffffffffffffffffffffffffffff19166020820180517bffffffffffffffffffffffffffffffffffffffffffffffffffffffff838183161783525050505061138f565b505050565b6001816000016000828254019250508190555050565b60008151905060006a636f6e736f6c652e6c6f679050602083016000808483855afa5050505050565b60008073ffffffffffffffffffffffffffffffffffffffff166002600084815260200190815260200160002060009054906101000a900473ffffffffffffffffffffffffffffffffffffffff1673ffffffffffffffffffffffffffffffffffffffff1614159050919050565b505050565b505050565b600061144f8473ffffffffffffffffffffffffffffffffffffffff16611770565b156115a8578373ffffffffffffffffffffffffffffffffffffffff1663150b7a02611478610c3e565b8786866040518563ffffffff1660e01b815260040161149a949392919061291f565b6020604051808303816000875af19250505080156114d657506040513d601f19601f820116820180604052508101906114d39190612980565b60015b611558573d8060008114611506576040519150601f19603f3d011682016040523d82523d6000602084013e61150b565b606091505b506000815103611550576040517f08c379a00000000000000000000000000000000000000000000000000000000081526004016115479061255c565b60405180910390fd5b805181602001fd5b63150b7a0260e01b7bffffffffffffffffffffffffffffffffffffffffffffffffffffffff1916817bffffffffffffffffffffffffffffffffffffffffffffffffffffffff1916149150506115ad565b600190505b949350505050565b6060600082036115fc576040518060400160405280600181526020017f30000000000000000000000000000000000000000000000000000000000000008152509050611710565b600082905060005b6000821461162e578080611617906129ad565b915050600a826116279190612a24565b9150611604565b60008167ffffffffffffffff81111561164a57611649611d38565b5b6040519080825280601f01601f19166020018201604052801561167c5781602001600182028036833780820191505090505b5090505b60008514611709576001826116959190612416565b9150600a856116a49190612a55565b60306116b0919061244a565b60f81b8183815181106116c6576116c5612a86565b5b60200101907effffffffffffffffffffffffffffffffffffffffffffffffffffffffffffff1916908160001a905350600a856117029190612a24565b9450611680565b8093505050505b919050565b61171f8383611793565b61172c600084848461142e565b61176b576040517f08c379a00000000000000000000000000000000000000000000000000000000081526004016117629061255c565b60405180910390fd5b505050565b6000808273ffffffffffffffffffffffffffffffffffffffff163b119050919050565b600073ffffffffffffffffffffffffffffffffffffffff168273ffffffffffffffffffffffffffffffffffffffff1603611802576040517f08c379a00000000000000000000000000000000000000000000000000000000081526004016117f990612b01565b60405180910390fd5b61180b816113b8565b1561184b576040517f08c379a000000000000000000000000000000000000000000000000000000000815260040161184290612b6d565b60405180910390fd5b61185760008383611424565b6001600360008473ffffffffffffffffffffffffffffffffffffffff1673ffffffffffffffffffffffffffffffffffffffff16815260200190815260200160002060008282546118a7919061244a565b92505081905550816002600083815260200190815260200160002060006101000a81548173ffffffffffffffffffffffffffffffffffffffff021916908373ffffffffffffffffffffffffffffffffffffffff160217905550808273ffffffffffffffffffffffffffffffffffffffff16600073ffffffffffffffffffffffffffffffffffffffff167fddf252ad1be2c89b69c2b068fc378daa952ba7f163c4a11628f55a4df523b3ef60405160405180910390a461196860008383611429565b5050565b6000604051905090565b600080fd5b600080fd5b60007fffffffff0000000000000000000000000000000000000000000000000000000082169050919050565b6119b581611980565b81146119c057600080fd5b50565b6000813590506119d2816119ac565b92915050565b6000602082840312156119ee576119ed611976565b5b60006119fc848285016119c3565b91505092915050565b60008115159050919050565b611a1a81611a05565b82525050565b6000602082019050611a356000830184611a11565b92915050565b600081519050919050565b600082825260208201905092915050565b60005b83811015611a75578082015181840152602081019050611a5a565b60008484015250505050565b6000601f19601f8301169050919050565b6000611a9d82611a3b565b611aa78185611a46565b9350611ab7818560208601611a57565b611ac081611a81565b840191505092915050565b60006020820190508181036000830152611ae58184611a92565b905092915050565b6000819050919050565b611b0081611aed565b8114611b0b57600080fd5b50565b600081359050611b1d81611af7565b92915050565b600060208284031215611b3957611b38611976565b5b6000611b4784828501611b0e565b91505092915050565b600073ffffffffffffffffffffffffffffffffffffffff82169050919050565b6000611b7b82611b50565b9050919050565b611b8b81611b70565b82525050565b6000602082019050611ba66000830184611b82565b92915050565b611bb581611b70565b8114611bc057600080fd5b50565b600081359050611bd281611bac565b92915050565b60008060408385031215611bef57611bee611976565b5b6000611bfd85828601611bc3565b9250506020611c0e85828601611b0e565b9150509250929050565b600080600060608486031215611c3157611c30611976565b5b6000611c3f86828701611bc3565b9350506020611c5086828701611bc3565b9250506040611c6186828701611b0e565b9150509250925092565b600060208284031215611c8157611c80611976565b5b6000611c8f84828501611bc3565b91505092915050565b611ca181611aed565b82525050565b6000602082019050611cbc6000830184611c98565b92915050565b611ccb81611a05565b8114611cd657600080fd5b50565b600081359050611ce881611cc2565b92915050565b60008060408385031215611d0557611d04611976565b5b6000611d1385828601611bc3565b9250506020611d2485828601611cd9565b9150509250929050565b600080fd5b600080fd5b7f4e487b7100000000000000000000000000000000000000000000000000000000600052604160045260246000fd5b611d7082611a81565b810181811067ffffffffffffffff82111715611d8f57611d8e611d38565b5b80604052505050565b6000611da261196c565b9050611dae8282611d67565b919050565b600067ffffffffffffffff821115611dce57611dcd611d38565b5b611dd782611a81565b9050602081019050919050565b82818337600083830152505050565b6000611e06611e0184611db3565b611d98565b905082815260208101848484011115611e2257611e21611d33565b5b611e2d848285611de4565b509392505050565b600082601f830112611e4a57611e49611d2e565b5b8135611e5a848260208601611df3565b91505092915050565b60008060008060808587031215611e7d57611e7c611976565b5b6000611e8b87828801611bc3565b9450506020611e9c87828801611bc3565b9350506040611ead87828801611b0e565b925050606085013567ffffffffffffffff811115611ece57611ecd61197b565b5b611eda87828801611e35565b91505092959194509250565b60008060408385031215611efd57611efc611976565b5b6000611f0b85828601611bc3565b9250506020611f1c85828601611bc3565b9150509250929050565b7f4e487b7100000000000000000000000000000000000000000000000000000000600052602260045260246000fd5b60006002820490506001821680611f6d57607f821691505b602082108103611f8057611f7f611f26565b5b50919050565b7f4552433732313a20617070726f76616c20746f2063757272656e74206f776e6560008201527f7200000000000000000000000000000000000000000000000000000000000000602082015250565b6000611fe2602183611a46565b9150611fed82611f86565b604082019050919050565b6000602082019050818103600083015261201181611fd5565b9050919050565b7f4552433732313a20617070726f76652063616c6c6572206973206e6f7420746f60008201527f6b656e206f776e6572206e6f7220617070726f76656420666f7220616c6c0000602082015250565b6000612074603e83611a46565b915061207f82612018565b604082019050919050565b600060208201905081810360008301526120a381612067565b9050919050565b7f4552433732313a2063616c6c6572206973206e6f7420746f6b656e206f776e6560008201527f72206e6f7220617070726f766564000000000000000000000000000000000000602082015250565b6000612106602e83611a46565b9150612111826120aa565b604082019050919050565b60006020820190508181036000830152612135816120f9565b9050919050565b7f4552433732313a20696e76616c696420746f6b656e2049440000000000000000600082015250565b6000612172601883611a46565b915061217d8261213c565b602082019050919050565b600060208201905081810360008301526121a181612165565b9050919050565b7f4552433732313a2061646472657373207a65726f206973206e6f74206120766160008201527f6c6964206f776e65720000000000000000000000000000000000000000000000602082015250565b6000612204602983611a46565b915061220f826121a8565b604082019050919050565b60006020820190508181036000830152612233816121f7565b9050919050565b600081905092915050565b600061225082611a3b565b61225a818561223a565b935061226a818560208601611a57565b80840191505092915050565b60006122828285612245565b915061228e8284612245565b91508190509392505050565b60006040820190506122af6000830185611b82565b6122bc6020830184611c98565b9392505050565b7f4552433732313a207472616e736665722066726f6d20696e636f72726563742060008201527f6f776e6572000000000000000000000000000000000000000000000000000000602082015250565b600061231f602583611a46565b915061232a826122c3565b604082019050919050565b6000602082019050818103600083015261234e81612312565b9050919050565b7f4552433732313a207472616e7366657220746f20746865207a65726f2061646460008201527f7265737300000000000000000000000000000000000000000000000000000000602082015250565b60006123b1602483611a46565b91506123bc82612355565b604082019050919050565b600060208201905081810360008301526123e0816123a4565b9050919050565b7f4e487b7100000000000000000000000000000000000000000000000000000000600052601160045260246000fd5b600061242182611aed565b915061242c83611aed565b9250828203905081811115612444576124436123e7565b5b92915050565b600061245582611aed565b915061246083611aed565b9250828201905080821115612478576124776123e7565b5b92915050565b7f4552433732313a20617070726f766520746f2063616c6c657200000000000000600082015250565b60006124b4601983611a46565b91506124bf8261247e565b602082019050919050565b600060208201905081810360008301526124e3816124a7565b9050919050565b7f4552433732313a207472616e7366657220746f206e6f6e20455243373231526560008201527f63656976657220696d706c656d656e7465720000000000000000000000000000602082015250565b6000612546603283611a46565b9150612551826124ea565b604082019050919050565b6000602082019050818103600083015261257581612539565b9050919050565b7f45524337323155524953746f726167653a2055524920736574206f66206e6f6e60008201527f6578697374656e7420746f6b656e000000000000000000000000000000000000602082015250565b60006125d8602e83611a46565b91506125e38261257c565b604082019050919050565b60006020820190508181036000830152612607816125cb565b9050919050565b60008190508160005260206000209050919050565b60006020601f8301049050919050565b600082821b905092915050565b6000600883026126707fffffffffffffffffffffffffffffffffffffffffffffffffffffffffffffffff82612633565b61267a8683612633565b95508019841693508086168417925050509392505050565b6000819050919050565b60006126b76126b26126ad84611aed565b612692565b611aed565b9050919050565b6000819050919050565b6126d18361269c565b6126e56126dd826126be565b848454612640565b825550505050565b600090565b6126fa6126ed565b6127058184846126c8565b505050565b5b818110156127295761271e6000826126f2565b60018101905061270b565b5050565b601f82111561276e5761273f8161260e565b61274884612623565b81016020851015612757578190505b61276b61276385612623565b83018261270a565b50505b505050565b600082821c905092915050565b600061279160001984600802612773565b1980831691505092915050565b60006127aa8383612780565b9150826002028217905092915050565b6127c382611a3b565b67ffffffffffffffff8111156127dc576127db611d38565b5b6127e68254611f55565b6127f182828561272d565b600060209050601f8311600181146128245760008415612812578287015190505b61281c858261279e565b865550612884565b601f1984166128328661260e565b60005b8281101561285a57848901518255600182019150602085019450602081019050612835565b868310156128775784890151612873601f891682612780565b8355505b6001600288020188555050505b505050505050565b600060608201905081810360008301526128a68186611a92565b90506128b56020830185611c98565b6128c26040830184611b82565b949350505050565b600081519050919050565b600082825260208201905092915050565b60006128f1826128ca565b6128fb81856128d5565b935061290b818560208601611a57565b61291481611a81565b840191505092915050565b60006080820190506129346000830187611b82565b6129416020830186611b82565b61294e6040830185611c98565b818103606083015261296081846128e6565b905095945050505050565b60008151905061297a816119ac565b92915050565b60006020828403121561299657612995611976565b5b60006129a48482850161296b565b91505092915050565b60006129b882611aed565b91507fffffffffffffffffffffffffffffffffffffffffffffffffffffffffffffffff82036129ea576129e96123e7565b5b600182019050919050565b7f4e487b7100000000000000000000000000000000000000000000000000000000600052601260045260246000fd5b6000612a2f82611aed565b9150612a3a83611aed565b925082612a4a57612a496129f5565b5b828204905092915050565b6000612a6082611aed565b9150612a6b83611aed565b925082612a7b57612a7a6129f5565b5b828206905092915050565b7f4e487b7100000000000000000000000000000000000000000000000000000000600052603260045260246000fd5b7f4552433732313a206d696e7420746f20746865207a65726f2061646472657373600082015250565b6000612aeb602083611a46565b9150612af682612ab5565b602082019050919050565b60006020820190508181036000830152612b1a81612ade565b9050919050565b7f4552433732313a20746f6b656e20616c7265616479206d696e74656400000000600082015250565b6000612b57601c83611a46565b9150612b6282612b21565b602082019050919050565b60006020820190508181036000830152612b8681612b4a565b905091905056fe416e204e465420772f20494420257320686173206265656e206d696e74656420746f202573646174613a6170706c69636174696f6e2f6a736f6e3b6261736536342c65776f6749434167496d3568625755694f6941695457466e61574e4364584a6e5a584a4359584a766269497343694167494341695a47567a59334a7063485270623234694f69416951573467546b5a5549475a79623230676447686c494768705a3268736553426859324e7359576c745a5751676333463159584a6c49474e766247786c59335270623234694c416f6749434167496d6c745957646c496a6f67496d526864474536615731685a32557663335a6e4b3368746244746959584e6c4e6a51735545684f4d6c7035516a52695633683159336f7761574649556a426a5247393254444e6b4d3252354e544e4e655456325932316a646b31715158644e517a6c365a47316a61556c49516e6c61574535735932356162464659546e646156303477565731474d4746584f446c4a626d684f59566331576c52586248564a527a4673576c685261556c49576e426157475244596a4e6e4f556c715157644e51304636546c52425a3031365658644a616a524c53554e425a306c456548706b5347787a576c513064566c74526e7061553049335355646163474a48647a5a4a534752765956685362453935516d31694d6a55775446646161474a5862484e6c5647396e597a4a57655746585754644a52317032596d355264474d7962445a615647396e54565253643256456332646d56486432597a4e534e574a48565374446155466e53554e424f474e74566d706b5130497a595664534d4746454d476c4e56454633536c4e4a5a324648566e42614d6d677755464e4a654531455157784a61554a745956643463314254536e565a57466f3153576c42646c426e6232644a5130466e55456853624756495557646c52444270546c524262456c70516a565155306b7854554e5661556c48546e4e5a5745353655464e4b61566c59546d784a61554a72596a497863474a74526e566b517a46705756684f62474a486248566156444270596c6473613170486547784a61554977576c686f4d457858526e565a4d6d683259326f7761574a58624774615233687353576f31546c6c585a48425a4d456f785932316b62474e72536d686a62546c3155454d354d467059614442515a32383454444e4f4d6c70364e443069436e303da26469706673582212208774d1e9b936a3ca44edf9442f5a1666dc4d5d09ca0dcf2826fbf614379b3f3964736f6c6343000810003354686973206973204d6574617665727365205365637572697479204e465420636f6e74726163742e20576f616821",
  "linkReferences": {},
  "deployedLinkReferences": {}
}