{
  "_format": "hh-sol-artifact-1",
  "contractName": "MyEpicNFT",
  "sourceName": "contracts/MyEpicNFT.sol",
  "abi": [
    {
      "inputs": [],
      "stateMutability": "nonpayable",
      "type": "constructor"
    },
    {
      "anonymous": false,
      "inputs": [
        {
          "indexed": true,
          "internalType": "address",
          "name": "owner",
          "type": "address"
        },
        {
          "indexed": true,
          "internalType": "address",
          "name": "approved",
          "type": "address"
        },
        {
          "indexed": true,
          "internalType": "uint256",
          "name": "tokenId",
          "type": "uint256"
        }
      ],
      "name": "Approval",
      "type": "event"
    },
    {
      "anonymous": false,
      "inputs": [
        {
          "indexed": true,
          "internalType": "address",
          "name": "owner",
          "type": "address"
        },
        {
          "indexed": true,
          "internalType": "address",
          "name": "operator",
          "type": "address"
        },
        {
          "indexed": false,
          "internalType": "bool",
          "name": "approved",
          "type": "bool"
        }
      ],
      "name": "ApprovalForAll",
      "type": "event"
    },
    {
      "anonymous": false,
      "inputs": [
        {
          "indexed": false,
          "internalType": "address",
          "name": "sender",
          "type": "address"
        },
        {
          "indexed": false,
          "internalType": "uint256",
          "name": "tokenId",
          "type": "uint256"
        }
      ],
      "name": "NewEpicNFTMinted",
      "type": "event"
    },
    {
      "anonymous": false,
      "inputs": [
        {
          "indexed": true,
          "internalType": "address",
          "name": "from",
          "type": "address"
        },
        {
          "indexed": true,
          "internalType": "address",
          "name": "to",
          "type": "address"
        },
        {
          "indexed": true,
          "internalType": "uint256",
          "name": "tokenId",
          "type": "uint256"
        }
      ],
      "name": "Transfer",
      "type": "event"
    },
    {
      "inputs": [
        {
          "internalType": "address",
          "name": "to",
          "type": "address"
        },
        {
          "internalType": "uint256",
          "name": "tokenId",
          "type": "uint256"
        }
      ],
      "name": "approve",
      "outputs": [],
      "stateMutability": "nonpayable",
      "type": "function"
    },
    {
      "inputs": [
        {
          "internalType": "address",
          "name": "owner",
          "type": "address"
        }
      ],
      "name": "balanceOf",
      "outputs": [
        {
          "internalType": "uint256",
          "name": "",
          "type": "uint256"
        }
      ],
      "stateMutability": "view",
      "type": "function"
    },
    {
      "inputs": [
        {
          "internalType": "uint256",
          "name": "tokenId",
          "type": "uint256"
        }
      ],
      "name": "getApproved",
      "outputs": [
        {
          "internalType": "address",
          "name": "",
          "type": "address"
        }
      ],
      "stateMutability": "view",
      "type": "function"
    },
    {
      "inputs": [
        {
          "internalType": "address",
          "name": "owner",
          "type": "address"
        },
        {
          "internalType": "address",
          "name": "operator",
          "type": "address"
        }
      ],
      "name": "isApprovedForAll",
      "outputs": [
        {
          "internalType": "bool",
          "name": "",
          "type": "bool"
        }
      ],
      "stateMutability": "view",
      "type": "function"
    },
    {
      "inputs": [],
      "name": "makeAnEpicNFT",
      "outputs": [],
      "stateMutability": "nonpayable",
      "type": "function"
    },
    {
      "inputs": [],
      "name": "name",
      "outputs": [
        {
          "internalType": "string",
          "name": "",
          "type": "string"
        }
      ],
      "stateMutability": "view",
      "type": "function"
    },
    {
      "inputs": [
        {
          "internalType": "uint256",
          "name": "tokenId",
          "type": "uint256"
        }
      ],
      "name": "ownerOf",
      "outputs": [
        {
          "internalType": "address",
          "name": "",
          "type": "address"
        }
      ],
      "stateMutability": "view",
      "type": "function"
    },
    {
      "inputs": [
        {
          "internalType": "address",
          "name": "from",
          "type": "address"
        },
        {
          "internalType": "address",
          "name": "to",
          "type": "address"
        },
        {
          "internalType": "uint256",
          "name": "tokenId",
          "type": "uint256"
        }
      ],
      "name": "safeTransferFrom",
      "outputs": [],
      "stateMutability": "nonpayable",
      "type": "function"
    },
    {
      "inputs": [
        {
          "internalType": "address",
          "name": "from",
          "type": "address"
        },
        {
          "internalType": "address",
          "name": "to",
          "type": "address"
        },
        {
          "internalType": "uint256",
          "name": "tokenId",
          "type": "uint256"
        },
        {
          "internalType": "bytes",
          "name": "data",
          "type": "bytes"
        }
      ],
      "name": "safeTransferFrom",
      "outputs": [],
      "stateMutability": "nonpayable",
      "type": "function"
    },
    {
      "inputs": [
        {
          "internalType": "address",
          "name": "operator",
          "type": "address"
        },
        {
          "internalType": "bool",
          "name": "approved",
          "type": "bool"
        }
      ],
      "name": "setApprovalForAll",
      "outputs": [],
      "stateMutability": "nonpayable",
      "type": "function"
    },
    {
      "inputs": [
        {
          "internalType": "bytes4",
          "name": "interfaceId",
          "type": "bytes4"
        }
      ],
      "name": "supportsInterface",
      "outputs": [
        {
          "internalType": "bool",
          "name": "",
          "type": "bool"
        }
      ],
      "stateMutability": "view",
      "type": "function"
    },
    {
      "inputs": [],
      "name": "symbol",
      "outputs": [
        {
          "internalType": "string",
          "name": "",
          "type": "string"
        }
      ],
      "stateMutability": "view",
      "type": "function"
    },
    {
      "inputs": [
        {
          "internalType": "uint256",
          "name": "tokenId",
          "type": "uint256"
        }
      ],
      "name": "tokenURI",
      "outputs": [
        {
          "internalType": "string",
          "name": "",
          "type": "string"
        }
      ],
      "stateMutability": "view",
      "type": "function"
    },
    {
      "inputs": [
        {
          "internalType": "address",
          "name": "from",
          "type": "address"
        },
        {
          "internalType": "address",
          "name": "to",
          "type": "address"
        },
        {
          "internalType": "uint256",
          "name": "tokenId",
          "type": "uint256"
        }
      ],
      "name": "transferFrom",
      "outputs": [],
      "stateMutability": "nonpayable",
      "type": "function"
    }
  ],
  "bytecode": "0x60806040523480156200001157600080fd5b506040518060400160405280601481526020017f4d657461766572736553656375726974794e46540000000000000000000000008152506040518060400160405280600581526020017f4d534e4654000000000000000000000000000000000000000000000000000000815250816000908051906020019062000096929190620001b3565b508060019080519060200190620000af929190620001b3565b505050620000e16040518060600160405280602e815260200162003123602e9139620000e760201b62000af41760201c565b62000390565b6200018781604051602401620000fe9190620002a4565b6040516020818303038152906040527f41304fac000000000000000000000000000000000000000000000000000000007bffffffffffffffffffffffffffffffffffffffffffffffffffffffff19166020820180517bffffffffffffffffffffffffffffffffffffffffffffffffffffffff83818316178352505050506200018a60201b60201c565b50565b60008151905060006a636f6e736f6c652e6c6f679050602083016000808483855afa5050505050565b828054620001c1906200031a565b90600052602060002090601f016020900481019282620001e5576000855562000231565b82601f106200020057805160ff191683800117855562000231565b8280016001018555821562000231579182015b828111156200023057825182559160200191906001019062000213565b5b50905062000240919062000244565b5090565b5b808211156200025f57600081600090555060010162000245565b5090565b60006200027082620002c8565b6200027c8185620002d3565b93506200028e818560208601620002e4565b62000299816200037f565b840191505092915050565b60006020820190508181036000830152620002c0818462000263565b905092915050565b600081519050919050565b600082825260208201905092915050565b60005b8381101562000304578082015181840152602081019050620002e7565b8381111562000314576000848401525b50505050565b600060028204905060018216806200033357607f821691505b602082108114156200034a576200034962000350565b5b50919050565b7f4e487b7100000000000000000000000000000000000000000000000000000000600052602260045260246000fd5b6000601f19601f8301169050919050565b612d8380620003a06000396000f3fe608060405234801561001057600080fd5b50600436106100ea5760003560e01c806370a082311161008c578063b88d4fde11610066578063b88d4fde1461025b578063c87b56dd14610277578063de9d132f146102a7578063e985e9c5146102b1576100ea565b806370a08231146101f157806395d89b4114610221578063a22cb4651461023f576100ea565b8063095ea7b3116100c8578063095ea7b31461016d57806323b872dd1461018957806342842e0e146101a55780636352211e146101c1576100ea565b806301ffc9a7146100ef57806306fdde031461011f578063081812fc1461013d575b600080fd5b61010960048036038101906101049190611cf2565b6102e1565b6040516101169190612095565b60405180910390f35b6101276103c3565b60405161013491906120b0565b60405180910390f35b61015760048036038101906101529190611d44565b610455565b6040516101649190612005565b60405180910390f35b61018760048036038101906101829190611cb6565b61049b565b005b6101a3600480360381019061019e9190611bb0565b6105b3565b005b6101bf60048036038101906101ba9190611bb0565b610613565b005b6101db60048036038101906101d69190611d44565b610633565b6040516101e89190612005565b60405180910390f35b61020b60048036038101906102069190611b4b565b6106e5565b6040516102189190612290565b60405180910390f35b61022961079d565b60405161023691906120b0565b60405180910390f35b61025960048036038101906102549190611c7a565b61082f565b005b61027560048036038101906102709190611bff565b610845565b005b610291600480360381019061028c9190611d44565b6108a7565b60405161029e91906120b0565b60405180910390f35b6102af6109ba565b005b6102cb60048036038101906102c69190611b74565b610a60565b6040516102d89190612095565b60405180910390f35b60007f80ac58cd000000000000000000000000000000000000000000000000000000007bffffffffffffffffffffffffffffffffffffffffffffffffffffffff1916827bffffffffffffffffffffffffffffffffffffffffffffffffffffffff191614806103ac57507f5b5e139f000000000000000000000000000000000000000000000000000000007bffffffffffffffffffffffffffffffffffffffffffffffffffffffff1916827bffffffffffffffffffffffffffffffffffffffffffffffffffffffff1916145b806103bc57506103bb82610b8d565b5b9050919050565b6060600080546103d2906124b5565b80601f01602080910402602001604051908101604052809291908181526020018280546103fe906124b5565b801561044b5780601f106104205761010080835404028352916020019161044b565b820191906000526020600020905b81548152906001019060200180831161042e57829003601f168201915b5050505050905090565b600061046082610bf7565b6004600083815260200190815260200160002060009054906101000a900473ffffffffffffffffffffffffffffffffffffffff169050919050565b60006104a682610633565b90508073ffffffffffffffffffffffffffffffffffffffff168373ffffffffffffffffffffffffffffffffffffffff161415610517576040517f08c379a000000000000000000000000000000000000000000000000000000000815260040161050e90612250565b60405180910390fd5b8073ffffffffffffffffffffffffffffffffffffffff16610536610c42565b73ffffffffffffffffffffffffffffffffffffffff16148061056557506105648161055f610c42565b610a60565b5b6105a4576040517f08c379a000000000000000000000000000000000000000000000000000000000815260040161059b906121f0565b60405180910390fd5b6105ae8383610c4a565b505050565b6105c46105be610c42565b82610d03565b610603576040517f08c379a00000000000000000000000000000000000000000000000000000000081526004016105fa90612270565b60405180910390fd5b61060e838383610d98565b505050565b61062e83838360405180602001604052806000815250610845565b505050565b6000806002600084815260200190815260200160002060009054906101000a900473ffffffffffffffffffffffffffffffffffffffff169050600073ffffffffffffffffffffffffffffffffffffffff168173ffffffffffffffffffffffffffffffffffffffff1614156106dc576040517f08c379a00000000000000000000000000000000000000000000000000000000081526004016106d390612230565b60405180910390fd5b80915050919050565b60008073ffffffffffffffffffffffffffffffffffffffff168273ffffffffffffffffffffffffffffffffffffffff161415610756576040517f08c379a000000000000000000000000000000000000000000000000000000000815260040161074d906121b0565b60405180910390fd5b600360008373ffffffffffffffffffffffffffffffffffffffff1673ffffffffffffffffffffffffffffffffffffffff168152602001908152602001600020549050919050565b6060600180546107ac906124b5565b80601f01602080910402602001604051908101604052809291908181526020018280546107d8906124b5565b80156108255780601f106107fa57610100808354040283529160200191610825565b820191906000526020600020905b81548152906001019060200180831161080857829003601f168201915b5050505050905090565b61084161083a610c42565b8383610fff565b5050565b610856610850610c42565b83610d03565b610895576040517f08c379a000000000000000000000000000000000000000000000000000000000815260040161088c90612270565b60405180910390fd5b6108a18484848461116c565b50505050565b60606108b282610bf7565b60006006600084815260200190815260200160002080546108d2906124b5565b80601f01602080910402602001604051908101604052809291908181526020018280546108fe906124b5565b801561094b5780601f106109205761010080835404028352916020019161094b565b820191906000526020600020905b81548152906001019060200180831161092e57829003601f168201915b50505050509050600061095c6111c8565b90506000815114156109725781925050506109b5565b6000825111156109a757808260405160200161098f929190611fe1565b604051602081830303815290604052925050506109b5565b6109b0846111df565b925050505b919050565b60006109c66007611247565b90506109d23382611255565b6109f78160405180610380016040528061035181526020016129fd6103519139611273565b610a1a6040518060600160405280602581526020016129d86025913982336112e7565b610a246007611386565b7febb98688741ffa4c7589bf325de30cf7becb63de567842e1ccdb6cb949fdc82c3382604051610a5592919061206c565b60405180910390a150565b6000600560008473ffffffffffffffffffffffffffffffffffffffff1673ffffffffffffffffffffffffffffffffffffffff16815260200190815260200160002060008373ffffffffffffffffffffffffffffffffffffffff1673ffffffffffffffffffffffffffffffffffffffff16815260200190815260200160002060009054906101000a900460ff16905092915050565b610b8a81604051602401610b0891906120b0565b6040516020818303038152906040527f41304fac000000000000000000000000000000000000000000000000000000007bffffffffffffffffffffffffffffffffffffffffffffffffffffffff19166020820180517bffffffffffffffffffffffffffffffffffffffffffffffffffffffff838183161783525050505061139c565b50565b60007f01ffc9a7000000000000000000000000000000000000000000000000000000007bffffffffffffffffffffffffffffffffffffffffffffffffffffffff1916827bffffffffffffffffffffffffffffffffffffffffffffffffffffffff1916149050919050565b610c00816113c5565b610c3f576040517f08c379a0000000000000000000000000000000000000000000000000000000008152600401610c3690612230565b60405180910390fd5b50565b600033905090565b816004600083815260200190815260200160002060006101000a81548173ffffffffffffffffffffffffffffffffffffffff021916908373ffffffffffffffffffffffffffffffffffffffff160217905550808273ffffffffffffffffffffffffffffffffffffffff16610cbd83610633565b73ffffffffffffffffffffffffffffffffffffffff167f8c5be1e5ebec7d5bd14f71427d1e84f3dd0314c0f7b2291e5b200ac8c7c3b92560405160405180910390a45050565b600080610d0f83610633565b90508073ffffffffffffffffffffffffffffffffffffffff168473ffffffffffffffffffffffffffffffffffffffff161480610d515750610d508185610a60565b5b80610d8f57508373ffffffffffffffffffffffffffffffffffffffff16610d7784610455565b73ffffffffffffffffffffffffffffffffffffffff16145b91505092915050565b8273ffffffffffffffffffffffffffffffffffffffff16610db882610633565b73ffffffffffffffffffffffffffffffffffffffff1614610e0e576040517f08c379a0000000000000000000000000000000000000000000000000000000008152600401610e0590612130565b60405180910390fd5b600073ffffffffffffffffffffffffffffffffffffffff168273ffffffffffffffffffffffffffffffffffffffff161415610e7e576040517f08c379a0000000000000000000000000000000000000000000000000000000008152600401610e7590612170565b60405180910390fd5b610e89838383611431565b610e94600082610c4a565b6001600360008573ffffffffffffffffffffffffffffffffffffffff1673ffffffffffffffffffffffffffffffffffffffff1681526020019081526020016000206000828254610ee491906123cb565b925050819055506001600360008473ffffffffffffffffffffffffffffffffffffffff1673ffffffffffffffffffffffffffffffffffffffff1681526020019081526020016000206000828254610f3b9190612344565b92505081905550816002600083815260200190815260200160002060006101000a81548173ffffffffffffffffffffffffffffffffffffffff021916908373ffffffffffffffffffffffffffffffffffffffff160217905550808273ffffffffffffffffffffffffffffffffffffffff168473ffffffffffffffffffffffffffffffffffffffff167fddf252ad1be2c89b69c2b068fc378daa952ba7f163c4a11628f55a4df523b3ef60405160405180910390a4610ffa838383611436565b505050565b8173ffffffffffffffffffffffffffffffffffffffff168373ffffffffffffffffffffffffffffffffffffffff16141561106e576040517f08c379a000000000000000000000000000000000000000000000000000000000815260040161106590612190565b60405180910390fd5b80600560008573ffffffffffffffffffffffffffffffffffffffff1673ffffffffffffffffffffffffffffffffffffffff16815260200190815260200160002060008473ffffffffffffffffffffffffffffffffffffffff1673ffffffffffffffffffffffffffffffffffffffff16815260200190815260200160002060006101000a81548160ff0219169083151502179055508173ffffffffffffffffffffffffffffffffffffffff168373ffffffffffffffffffffffffffffffffffffffff167f17307eab39ab6107e8899845ad3d59bd9653f200f220920489ca2b5937696c318360405161115f9190612095565b60405180910390a3505050565b611177848484610d98565b6111838484848461143b565b6111c2576040517f08c379a00000000000000000000000000000000000000000000000000000000081526004016111b990612110565b60405180910390fd5b50505050565b606060405180602001604052806000815250905090565b60606111ea82610bf7565b60006111f46111c8565b90506000815111611214576040518060200160405280600081525061123f565b8061121e846115d2565b60405160200161122f929190611fe1565b6040516020818303038152906040525b915050919050565b600081600001549050919050565b61126f82826040518060200160405280600081525061177f565b5050565b61127c826113c5565b6112bb576040517f08c379a00000000000000000000000000000000000000000000000000000000081526004016112b2906121d0565b60405180910390fd5b806006600084815260200190815260200160002090805190602001906112e29291906119d7565b505050565b6113818383836040516024016112ff939291906120d2565b6040516020818303038152906040527fe3849f79000000000000000000000000000000000000000000000000000000007bffffffffffffffffffffffffffffffffffffffffffffffffffffffff19166020820180517bffffffffffffffffffffffffffffffffffffffffffffffffffffffff838183161783525050505061139c565b505050565b6001816000016000828254019250508190555050565b60008151905060006a636f6e736f6c652e6c6f679050602083016000808483855afa5050505050565b60008073ffffffffffffffffffffffffffffffffffffffff166002600084815260200190815260200160002060009054906101000a900473ffffffffffffffffffffffffffffffffffffffff1673ffffffffffffffffffffffffffffffffffffffff1614159050919050565b505050565b505050565b600061145c8473ffffffffffffffffffffffffffffffffffffffff166117da565b156115c5578373ffffffffffffffffffffffffffffffffffffffff1663150b7a02611485610c42565b8786866040518563ffffffff1660e01b81526004016114a79493929190612020565b602060405180830381600087803b1580156114c157600080fd5b505af19250505080156114f257506040513d601f19601f820116820180604052508101906114ef9190611d1b565b60015b611575573d8060008114611522576040519150601f19603f3d011682016040523d82523d6000602084013e611527565b606091505b5060008151141561156d576040517f08c379a000000000000000000000000000000000000000000000000000000000815260040161156490612110565b60405180910390fd5b805181602001fd5b63150b7a0260e01b7bffffffffffffffffffffffffffffffffffffffffffffffffffffffff1916817bffffffffffffffffffffffffffffffffffffffffffffffffffffffff1916149150506115ca565b600190505b949350505050565b6060600082141561161a576040518060400160405280600181526020017f3000000000000000000000000000000000000000000000000000000000000000815250905061177a565b600082905060005b6000821461164c57808061163590612518565b915050600a82611645919061239a565b9150611622565b60008167ffffffffffffffff81111561168e577f4e487b7100000000000000000000000000000000000000000000000000000000600052604160045260246000fd5b6040519080825280601f01601f1916602001820160405280156116c05781602001600182028036833780820191505090505b5090505b60008514611773576001826116d991906123cb565b9150600a856116e89190612561565b60306116f49190612344565b60f81b818381518110611730577f4e487b7100000000000000000000000000000000000000000000000000000000600052603260045260246000fd5b60200101907effffffffffffffffffffffffffffffffffffffffffffffffffffffffffffff1916908160001a905350600a8561176c919061239a565b94506116c4565b8093505050505b919050565b61178983836117fd565b611796600084848461143b565b6117d5576040517f08c379a00000000000000000000000000000000000000000000000000000000081526004016117cc90612110565b60405180910390fd5b505050565b6000808273ffffffffffffffffffffffffffffffffffffffff163b119050919050565b600073ffffffffffffffffffffffffffffffffffffffff168273ffffffffffffffffffffffffffffffffffffffff16141561186d576040517f08c379a000000000000000000000000000000000000000000000000000000000815260040161186490612210565b60405180910390fd5b611876816113c5565b156118b6576040517f08c379a00000000000000000000000000000000000000000000000000000000081526004016118ad90612150565b60405180910390fd5b6118c260008383611431565b6001600360008473ffffffffffffffffffffffffffffffffffffffff1673ffffffffffffffffffffffffffffffffffffffff16815260200190815260200160002060008282546119129190612344565b92505081905550816002600083815260200190815260200160002060006101000a81548173ffffffffffffffffffffffffffffffffffffffff021916908373ffffffffffffffffffffffffffffffffffffffff160217905550808273ffffffffffffffffffffffffffffffffffffffff16600073ffffffffffffffffffffffffffffffffffffffff167fddf252ad1be2c89b69c2b068fc378daa952ba7f163c4a11628f55a4df523b3ef60405160405180910390a46119d360008383611436565b5050565b8280546119e3906124b5565b90600052602060002090601f016020900481019282611a055760008555611a4c565b82601f10611a1e57805160ff1916838001178555611a4c565b82800160010185558215611a4c579182015b82811115611a4b578251825591602001919060010190611a30565b5b509050611a599190611a5d565b5090565b5b80821115611a76576000816000905550600101611a5e565b5090565b6000611a8d611a88846122d0565b6122ab565b905082815260208101848484011115611aa557600080fd5b611ab0848285612473565b509392505050565b600081359050611ac78161297b565b92915050565b600081359050611adc81612992565b92915050565b600081359050611af1816129a9565b92915050565b600081519050611b06816129a9565b92915050565b600082601f830112611b1d57600080fd5b8135611b2d848260208601611a7a565b91505092915050565b600081359050611b45816129c0565b92915050565b600060208284031215611b5d57600080fd5b6000611b6b84828501611ab8565b91505092915050565b60008060408385031215611b8757600080fd5b6000611b9585828601611ab8565b9250506020611ba685828601611ab8565b9150509250929050565b600080600060608486031215611bc557600080fd5b6000611bd386828701611ab8565b9350506020611be486828701611ab8565b9250506040611bf586828701611b36565b9150509250925092565b60008060008060808587031215611c1557600080fd5b6000611c2387828801611ab8565b9450506020611c3487828801611ab8565b9350506040611c4587828801611b36565b925050606085013567ffffffffffffffff811115611c6257600080fd5b611c6e87828801611b0c565b91505092959194509250565b60008060408385031215611c8d57600080fd5b6000611c9b85828601611ab8565b9250506020611cac85828601611acd565b9150509250929050565b60008060408385031215611cc957600080fd5b6000611cd785828601611ab8565b9250506020611ce885828601611b36565b9150509250929050565b600060208284031215611d0457600080fd5b6000611d1284828501611ae2565b91505092915050565b600060208284031215611d2d57600080fd5b6000611d3b84828501611af7565b91505092915050565b600060208284031215611d5657600080fd5b6000611d6484828501611b36565b91505092915050565b611d76816123ff565b82525050565b611d8581612411565b82525050565b6000611d9682612301565b611da08185612317565b9350611db0818560208601612482565b611db98161264e565b840191505092915050565b6000611dcf8261230c565b611dd98185612328565b9350611de9818560208601612482565b611df28161264e565b840191505092915050565b6000611e088261230c565b611e128185612339565b9350611e22818560208601612482565b80840191505092915050565b6000611e3b603283612328565b9150611e468261265f565b604082019050919050565b6000611e5e602583612328565b9150611e69826126ae565b604082019050919050565b6000611e81601c83612328565b9150611e8c826126fd565b602082019050919050565b6000611ea4602483612328565b9150611eaf82612726565b604082019050919050565b6000611ec7601983612328565b9150611ed282612775565b602082019050919050565b6000611eea602983612328565b9150611ef58261279e565b604082019050919050565b6000611f0d602e83612328565b9150611f18826127ed565b604082019050919050565b6000611f30603e83612328565b9150611f3b8261283c565b604082019050919050565b6000611f53602083612328565b9150611f5e8261288b565b602082019050919050565b6000611f76601883612328565b9150611f81826128b4565b602082019050919050565b6000611f99602183612328565b9150611fa4826128dd565b604082019050919050565b6000611fbc602e83612328565b9150611fc78261292c565b604082019050919050565b611fdb81612469565b82525050565b6000611fed8285611dfd565b9150611ff98284611dfd565b91508190509392505050565b600060208201905061201a6000830184611d6d565b92915050565b60006080820190506120356000830187611d6d565b6120426020830186611d6d565b61204f6040830185611fd2565b81810360608301526120618184611d8b565b905095945050505050565b60006040820190506120816000830185611d6d565b61208e6020830184611fd2565b9392505050565b60006020820190506120aa6000830184611d7c565b92915050565b600060208201905081810360008301526120ca8184611dc4565b905092915050565b600060608201905081810360008301526120ec8186611dc4565b90506120fb6020830185611fd2565b6121086040830184611d6d565b949350505050565b6000602082019050818103600083015261212981611e2e565b9050919050565b6000602082019050818103600083015261214981611e51565b9050919050565b6000602082019050818103600083015261216981611e74565b9050919050565b6000602082019050818103600083015261218981611e97565b9050919050565b600060208201905081810360008301526121a981611eba565b9050919050565b600060208201905081810360008301526121c981611edd565b9050919050565b600060208201905081810360008301526121e981611f00565b9050919050565b6000602082019050818103600083015261220981611f23565b9050919050565b6000602082019050818103600083015261222981611f46565b9050919050565b6000602082019050818103600083015261224981611f69565b9050919050565b6000602082019050818103600083015261226981611f8c565b9050919050565b6000602082019050818103600083015261228981611faf565b9050919050565b60006020820190506122a56000830184611fd2565b92915050565b60006122b56122c6565b90506122c182826124e7565b919050565b6000604051905090565b600067ffffffffffffffff8211156122eb576122ea61261f565b5b6122f48261264e565b9050602081019050919050565b600081519050919050565b600081519050919050565b600082825260208201905092915050565b600082825260208201905092915050565b600081905092915050565b600061234f82612469565b915061235a83612469565b9250827fffffffffffffffffffffffffffffffffffffffffffffffffffffffffffffffff0382111561238f5761238e612592565b5b828201905092915050565b60006123a582612469565b91506123b083612469565b9250826123c0576123bf6125c1565b5b828204905092915050565b60006123d682612469565b91506123e183612469565b9250828210156123f4576123f3612592565b5b828203905092915050565b600061240a82612449565b9050919050565b60008115159050919050565b60007fffffffff0000000000000000000000000000000000000000000000000000000082169050919050565b600073ffffffffffffffffffffffffffffffffffffffff82169050919050565b6000819050919050565b82818337600083830152505050565b60005b838110156124a0578082015181840152602081019050612485565b838111156124af576000848401525b50505050565b600060028204905060018216806124cd57607f821691505b602082108114156124e1576124e06125f0565b5b50919050565b6124f08261264e565b810181811067ffffffffffffffff8211171561250f5761250e61261f565b5b80604052505050565b600061252382612469565b91507fffffffffffffffffffffffffffffffffffffffffffffffffffffffffffffffff82141561255657612555612592565b5b600182019050919050565b600061256c82612469565b915061257783612469565b925082612587576125866125c1565b5b828206905092915050565b7f4e487b7100000000000000000000000000000000000000000000000000000000600052601160045260246000fd5b7f4e487b7100000000000000000000000000000000000000000000000000000000600052601260045260246000fd5b7f4e487b7100000000000000000000000000000000000000000000000000000000600052602260045260246000fd5b7f4e487b7100000000000000000000000000000000000000000000000000000000600052604160045260246000fd5b6000601f19601f8301169050919050565b7f4552433732313a207472616e7366657220746f206e6f6e20455243373231526560008201527f63656976657220696d706c656d656e7465720000000000000000000000000000602082015250565b7f4552433732313a207472616e736665722066726f6d20696e636f72726563742060008201527f6f776e6572000000000000000000000000000000000000000000000000000000602082015250565b7f4552433732313a20746f6b656e20616c7265616479206d696e74656400000000600082015250565b7f4552433732313a207472616e7366657220746f20746865207a65726f2061646460008201527f7265737300000000000000000000000000000000000000000000000000000000602082015250565b7f4552433732313a20617070726f766520746f2063616c6c657200000000000000600082015250565b7f4552433732313a2061646472657373207a65726f206973206e6f74206120766160008201527f6c6964206f776e65720000000000000000000000000000000000000000000000602082015250565b7f45524337323155524953746f726167653a2055524920736574206f66206e6f6e60008201527f6578697374656e7420746f6b656e000000000000000000000000000000000000602082015250565b7f4552433732313a20617070726f76652063616c6c6572206973206e6f7420746f60008201527f6b656e206f776e6572206e6f7220617070726f76656420666f7220616c6c0000602082015250565b7f4552433732313a206d696e7420746f20746865207a65726f2061646472657373600082015250565b7f4552433732313a20696e76616c696420746f6b656e2049440000000000000000600082015250565b7f4552433732313a20617070726f76616c20746f2063757272656e74206f776e6560008201527f7200000000000000000000000000000000000000000000000000000000000000602082015250565b7f4552433732313a2063616c6c6572206973206e6f7420746f6b656e206f776e6560008201527f72206e6f7220617070726f766564000000000000000000000000000000000000602082015250565b612984816123ff565b811461298f57600080fd5b50565b61299b81612411565b81146129a657600080fd5b50565b6129b28161241d565b81146129bd57600080fd5b50565b6129c981612469565b81146129d457600080fd5b5056fe416e204e465420772f20494420257320686173206265656e206d696e74656420746f202573646174613a6170706c69636174696f6e2f6a736f6e3b6261736536342c65776f6749434167496d3568625755694f6941695457466e61574e4364584a6e5a584a4359584a766269497343694167494341695a47567a59334a7063485270623234694f69416951573467546b5a5549475a79623230676447686c494768705a3268736553426859324e7359576c745a5751676333463159584a6c49474e766247786c59335270623234694c416f6749434167496d6c745957646c496a6f67496d526864474536615731685a32557663335a6e4b3368746244746959584e6c4e6a51735545684f4d6c7035516a52695633683159336f7761574649556a426a5247393254444e6b4d3252354e544e4e655456325932316a646b31715158644e517a6c365a47316a61556c49516e6c61574535735932356162464659546e646156303477565731474d4746584f446c4a626d684f59566331576c52586248564a527a4673576c685261556c49576e426157475244596a4e6e4f556c715157644e51304636546c52425a3031365658644a616a524c53554e425a306c456548706b5347787a576c513064566c74526e7061553049335355646163474a48647a5a4a534752765956685362453935516d31694d6a55775446646161474a5862484e6c5647396e597a4a57655746585754644a52317032596d355264474d7962445a615647396e54565253643256456332646d56486432597a4e534e574a48565374446155466e53554e424f474e74566d706b5130497a595664534d4746454d476c4e56454633536c4e4a5a324648566e42614d6d677755464e4a654531455157784a61554a745956643463314254536e565a57466f3153576c42646c426e6232644a5130466e55456853624756495557646c52444270546c524262456c70516a565155306b7854554e5661556c48546e4e5a5745353655464e4b61566c59546d784a61554a72596a497863474a74526e566b517a46705756684f62474a486248566156444270596c6473613170486547784a61554977576c686f4d457858526e565a4d6d683259326f7761574a58624774615233687353576f31546c6c585a48425a4d456f785932316b62474e72536d686a62546c3155454d354d467059614442515a32383454444e4f4d6c70364e443069436e303da264697066735822122068c70c58d9458d12a4562d2de375ec65b1d1ed6813a4c0b1aeb95f1730dd46d564736f6c6343000801003354686973206973204d6574617665727365205365637572697479204e465420636f6e74726163742e20576f616821",
  "linkReferences": {},
  "deployedLinkReferences": {}
}